S02800006D6F69737475726553656E736F725465737437536567566F6C746953696D756C2E73726563FC
S11300000C9434000C9451000C9451000C94510045
S11300100C9451000C9451000C9451000C94510018
S11300200C9451000C9451000C9451000C94510008
S11300300C9451000C9451000C9451000C945100F8
S11300400C9451000C9451000C9451000C945100E8
S11300500C9451000C9451000C9451000C945100D8
S11300600C9451000C94510011241FBECFEFD8E022
S1130070DEBFCDBF11E0A0E0B1E0E2E7F1E002C0F5
S113008005900D92A030B107D9F721E0A0E0B1E0CE
S113009001C01D92A530B207E1F70E948C000C94B8
S11300A0B7000C94000080E480937C0087E8809380
S11300B07A0008958770ECE7F0E09081987F892BAF
S11300C08083EAE7F0E080818064808380917A0015
S11300D084FFFCCFEAE7F0E0808180618083809137
S11300E078009091790008954FEF53E09C01249F8C
S11300F0C001259F900D349F900D11249C013695CD
S1130100279536952795ABE7B4E10E94A80096950C
S113011087958093040108958AEA8BB988E285B9AA
S113012085B1816085B90E94530080E00E945A0025
S113013090930101809300010E9474002FEF83EDDE
S113014090E3215080409040E1F700C00000E4CFEC
S1130150A29FB001B39FC001A39F700D811D112404
S1130160911DB29F700D811D1124911D0895F89465
S1050170FFCFBB
S9030000FC
